:020000040800F2
:1000000000000220C9190008C1180008C91800081A
:10001000D1180008D9180008E118000800000000F5
:10002000000000000000000000000000E9180008C7
:10003000F518000800000000011900080D1900085B
:10004000191A0008191A0008191A0008191A0008C4
:10005000191A0008191A0008191A0008191A0008B4
:10006000191A0008191A0008191A000819190008A5
:100070002D190008411900085519000869190008D0
:100080007D190008191A0008191A0008191A000821
:10009000191A0008191A0008191A0008191A000874
:1000A000191A0008191A0008191A0008191A000864
:1000B000191A000891190008191A0008191A0008DD
:1000C000191A0008191A0008191A0008191A000844
:1000D000191A0008191A0008191A0008191A000834
:1000E000A9190008191A0008191A0008191A000895
:1000F000191A0008191A0008191A0008191A000814
:10010000191A0008191A0008191A0008191A000803
:10011000191A0008191A0008191A0008191A0008F3
:10012000191A0008191A0008191A0008191A0008E3
:10013000191A0008191A0008191A0008191A0008D3
:10014000191A0008191A0008191A0008191A0008C3
:10015000191A0008191A0008191A0008191A0008B3
:10016000191A0008191A0008191A0008191A0008A3
:10017000191A0008191A0008191A0008191A000893
:10018000191A0008191A0008191A0008191A000883
:10019000191A000800000000191A0008191A0008AE
:1001A000191A0008191A0008191A0008191A000863
:1001B000191A0008191A0008191A0008191A000853
:1001C000191A0008191A0008191A0008191A000843
:0801D000191A0008191A0008B1
:1001D80010B5054C237833B9044B13B10448AFF379
:1001E80000800123237010BD900100200000000052
:1001F800D864000808B5034B1BB103490348AFF3A3
:10020800008008BD0000000094010020D8640008A8
:1002180053B94AB9002908BF00281CBF4FF0FF3165
:100228004FF0FF3000F088B9ADF1080C6DE904CE4D
:1002380000F006F8DDF804E0DDE9022304B07047B9
:100248002DE9F047089D8E4604468846002B4AD182
:100258008A42174662D9B2FA82F64EB1C6F1200335
:1002680001FA06F820FA03F3B74043EA0808B44055
:100278004FEA174E1FFA87FCB8FBFEF1230C0EFB62
:10028800118843EA084301FB0CF29A4209D9FB188A
:1002980001F1FF3080F0EA809A4240F2E7800239AB
:1002A8003B449A1AA3B2B2FBFEF00EFB102243EABB
:1002B800024300FB0CFC9C4509D9FB1800F1FF32F6
:1002C80080F0D6809C4540F2D3803B44023840EA17
:1002D8000140A3EB0C0300211DB1F3400022C5E946
:1002E8000032BDE8F0878B4205D90DB1C5E90001A0
:1002F80000210846F5E7B3FA83F1002946D1734592
:1003080002D3824200F20581841A6EEB03020120B7
:100318009046002DE5D0C5E90048E2E7002A00F044
:100328009080B2FA82F6002E40F0A4808A1A030C5C
:100338004FEA174E80B2BCB20121B2FBFEFC0EFBA5
:100348001C2243EA024304FB0CF29A4207D9FB1829
:100358000CF1FF3802D29A4200F2E080C4469B1AA0
:10036800B3FBFEF20EFB123340EA034302FB04F434
:100378009C4207D9FB1802F1FF3002D29C4200F2DE
:10038800CA8002461B1B42EA0C40A5E7C1F12006C1
:100398008B4022FA06F71F430EFA01F420FA06F3FF
:1003A8002EFA06FE4FEA1749234300FA01F81FFA0E
:1003B80087FCBEFBF9F01C0C09FB10EE44EA0E4466
:1003C80000FB0CFEA64502FA01F209D93C1900F11E
:1003D800FF3A80F09C80A64540F2998002383C4460
:1003E800A4EB0E041FFA83FEB4FBF9F309FB1344D4
:1003F8004EEA044403FB0CFCA44508D93C1903F15C
:10040800FF3E80F08280A4457FD9023B3C4443EA0A
:100418000040A4EB0C04A0FB02EC64457346E146E3
:1004280062D35FD05DB1B8EB030264EB090404FA50
:1004380006F622FA01F31E43CC40C5E90064002108
:100448004FE7B1FBF2FC010C41EA0E4180B240EAF1
:1004580001423B4638463C46B846BE462026B1FBDC
:10046800F7F1A2EB080241EA0C4166E7014618E7FA
:1004780010462CE7C6F120022EFA02F3B740B1402D
:1004880020FA02F24FEA174E0A43B3FBFEF8BCB259
:100498000EFB1833110C41EA034108FB04F9B04084
:1004A80089454FEA104380B23ED9791808F1FF3CDC
:1004B80001D289451FD8A1EB0901B1FBFEF909FB5F
:1004C80004F80EFB191192B242EA0142424529D2C0
:1004D800BA1809F1FF31C4D24245C2D2A9F10201CA
:1004E8003A44BEE7F0459DD2BEEB02036CEB070C25
:1004F8000138E14696E7A7EB09094944A8F1020C3F
:10050800B1FBFEF909FB04F8DBE773467FE75046C9
:1005180066E70846FDE63B44023A33E7ACF1020CD5
:100528003B441CE749469CE7A1EB0901C446B1FBE3
:10053800FEF909FB04F8C4E7704700BF90B587B01F
:1005480002AF78600023FB601BE0FB681B017A6840
:1005580013441868FB681B017A6813445968FB68E0
:100568001B017A6813449C68FB681B017A68134472
:10057800DB6800220092224601F012FCFB6801337E
:10058800FB60FB68052BE0DD00BF00BF1437BD46EC
:1005980090BD000080B500AF1221324800F0DCF8B1
:1005A8000721314800F0D8F8304BD3F89430002BAD
:1005B80004DA0C212E4800F0CFF827E02B4BD3F8B3
:1005C800943003F00053002B04D01721294800F081
:1005D800C3F81BE0254BD3F8943003F08063002B5D
:1005E80004D00C21244800F0B7F80FE01F4BD3F8D3
:1005F800943003F08053002B04D00B211F4800F0E7
:10060800ABF803E00A211E4800F0A6F8174BD3F810
:100618009430164A43F40003C2F89430194803F0A2
:1006280085FC0021174804F04FFE00F06DF800F03B
:10063800E9F8154803F07AFC144803F0E5FC14487F
:1006480002F0C2FB134802F0BFFB134802F0BCFBE8
:1006580001F04CFA0346114A136000F03BF800BF62
:1006680080BD00BFF0640008046500080010024067
:100678000C6500081C65000834650008446500081E
:1006880050650008A40500200C050020580500202E
:100698005804002094040020D0040020B401002055
:1006A80080B500AF01F022FA0246094B1B68D31A45
:1006B80041F26F72934206D901F018FA0346044AD0
:1006C800136000F09FF800F03DF800BF80BD00BF48
:1006D800B401002080B500AF094B0A4A1A60084BE4
:1006E80001225A60064B40F2E7329A60044B40F60A
:1006F800FE72DA60024800F031FD00BF80BD00BF25
:10070800B80100200030004080B582B000AF00235F
:100718007B600CE04FF4FA7001F0F2F9084B1B68AB
:10072800074A43F0010313607B6801337B607B68F1
:10073800032BEFDD00BF00BF0837BD4680BD00BFFB
:100748000034014080B500AF024800F056FD00BFFC
:1007580080BD00BFB801002080B582B000AF7860CE
:100768000B46FB70FB789AB24FF0FF337968034869
:1007780004F0D9FF00BF0837BD4680BDF005002052
:1007880080B500AF084B00221A60084B1B68013384
:1007980003F00303054A1360054B1B681846FFF76F
:1007A800CDFE00BF80BD00BFB0010020AC0100201D
:1007B8008001002080B400AF0E4B1B68002B12D1C3
:1007C8000D4B1B680C4A43F0010313600B4B1B686D
:1007D800591C0B4BA3FB01239A0813469B00134497
:1007E800CA1A064B1A60034B01221A6000BFBD46A5
:1007F80080BC7047B001002000340140AC010020EB
:10080800CDCCCCCC80B500AF304B1B68032B5BD86C
:1008180001A252F823F000BF310800085908000867
:1008280081080008A9080008294B2A4A1A602021D3
:100838002948FFF791FF10212848FFF78DFF0F2166
:100848002748FFF789FF10212648FFF785FF3BE07F
:100858001F4B254A1A6020211F48FFF77DFF1121F1
:100868002248FFF779FF0F212148FFF775FF102174
:100878001C48FFF771FF27E0154B1E4A1A6020211C
:100888001548FFF769FF11211B48FFF765FF0F2186
:100898001A48FFF761FF10211248FFF75DFF13E0C8
:1008A8000B4B174A1A6020210B48FFF755FF1121FF
:1008B8001448FFF751FF0F211348FFF74DFF102190
:1008C8000848FFF749FF00BF00BF80BDAC0100200A
:1008D80080010020000000205C6500088065000899
:1008E80094650008A465000860000020B865000849
:1008F800CC650008C0000020DC650008F065000831
:1009080020010020006600081466000880B500AFCA
:1009180001F080F800F01FF800F0B4FB00F060FB75
:1009280000F064F800F0A6F800F0DEF800F05AF9DC
:1009380000F07EF900F0C8F900F01AF900F09EF90D
:1009480000F00EFA00F000FB00F05AFAFFF722FE62
:10095800FFF7A6FEFCE780B594B000AF07F11803D7
:1009680038220021184605F087FD3B1D00221A6039
:100978005A609A60DA601A614FF4007002F054FA13
:100988000123BB614FF48033FB6102237B630323A4
:10099800BB630223FB6320233B6402237B640223A3
:1009A800BB640223FB6407F11803184602F0EEFA51
:1009B8000346002B01D000F0CBFB0F237B60032301
:1009C800BB609023FB604FF4A0633B6100237B6115
:1009D8003B1D0021184602F0EBFD0346002B01D019
:1009E80000F0B6FB00BF5037BD4680BD80B58CB067
:1009F80000AF3B4630220021184605F03DFD1B4B59
:100A08001B4A1A60194801F0A8F90346002B01D0C7
:100A180000F09EFB02233B6000233B7100237B71A7
:100A28000023BB601223FB6000233B6100237B6132
:100A38000123BB610023FB613B46002219460B489A
:100A480001F09EFA0346002B01D000F081FB3B46E3
:100A580010221946054801F093FA0346002B01D0ED
:100A680000F076FB00BF3037BD4680BDC8010020CE
:100A78000008005080B58CB000AF3B463022002102
:100A8800184605F0F9FC164B164A1A60144801F08E
:100A980064F90346002B01D000F05AFB02233B60A7
:100AA80000233B7100237B710023BB601223FB6092
:100AB80000233B6100237B610123BB610023FB61B1
:100AC8003B4600221946064801F05AFA0346002B15
:100AD80001D000F03DFB00BF3037BD4680BD00BFF0
:100AE800DC010020000C005080B58CB000AF3B4604
:100AF80030220021184605F0BFFC1B4B1B4A1A6028
:100B0800194801F02AF90346002B01D000F020FB18
:100B180002233B6000233B7100237B710023BB60F1
:100B28001223FB6000233B6102237B610223BB612C
:100B38000023FB613B46002219460B4801F020FACE
:100B48000346002B01D000F003FB3B461022194658
:100B5800054801F015FA0346002B01D000F0F8FA19
:100B680000BF3037BD4680BDF001002000100050A6
:100B780080B58CB000AF3B4630220021184605F006
:100B88007BFC164B164A1A60144801F0E6F8034637
:100B9800002B01D000F0DCFA02233B6000233B71FC
:100BA80000237B710023BB601223FB6000233B61A1
:100BB80002237B610223BB610023FB613B460022C9
:100BC8001946064801F0DCF90346002B01D000F075
:100BD800BFFA00BF3037BD4680BD00BF0402002009
:100BE8000014005080B500AF0F4B104A1A600E4B2E
:100BF80080225A600C4B60229A600B4B0C221A61BF
:100C0800094B00221A75084B00229A61064B0022F4
:100C1800DA62054802F008F80346002B01D000F01C
:100C280097FA00BF80BD00BF5804002000030140B0
:100C380080B500AF0F4B104A1A600E4B80225A60E5
:100C48000C4B60229A600B4B0C221A61094B002254
:100C58001A75084B00229A61064B0022DA62054891
:100C680001F0E2FF0346002B01D000F071FA00BF4B
:100C780080BD00BF940400200803014080B500AF88
:100C88000F4B104A1A600E4B80225A600C4B6022A0
:100C98009A600B4B0C221A61094B00221A75084BFB
:100CA80000229A61064B0022DA62054801F0BCFF77
:100CB8000346002B01D000F04BFA00BF80BD00BFF7
:100CC800D00400200C03014080B588B000AF07F1C4
:100CD800100300221A605A609A60DA603B1D0022F5
:100CE8001A605A609A601D4B4FF080421A601B4B85
:100CF8001F225A60194B00229A60184B3322DA607F
:100D0800164B00221A61154B00229A61134803F012
:100D1800B5F80346002B01D000F01AFA4FF48053BF
:100D28003B6107F1100319460C4803F0F7FC034632
:100D3800002B01D000F00CFA20237B600023FB601D
:100D48003B1D1946054804F015FB0346002B01D04E
:100D580000F0FEF900BF2037BD4680BD0C0500201D
:100D680080B588B000AF07F1100300221A605A60FE
:100D78009A60DA603B1D00221A605A609A601E4B26
:100D88001E4A1A601C4B43F67F625A601A4B0022B7
:100D98009A60194B40F6B732DA60174B00221A6195
:100DA800154B00229A61144803F068F80346002B9B
:100DB80001D000F0CDF94FF480533B6107F11003E7
:100DC80019460D4803F0AAFC0346002B01D000F099
:100DD800BFF900237B600023FB603B1D19460648D2
:100DE80004F0C8FA0346002B01D000F0B1F900BFA7
:100DF8002037BD4680BD00BF5805002000040040D4
:100E080080B598B000AF07F1540300221A605A6009
:100E18009A6007F1380300221A605A609A60DA6013
:100E28001A615A619A613B1D34220021184605F067
:100E380023FB434B434A1A60414B4FF47A525A60A2
:100E48003F4B00229A603E4B6422DA603C4B002202
:100E58001A613B4B00225A61394B00229A6138488B
:100E680003F048F90346002B01D000F071F908217E
:100E7800334803F096F90346002B01D000F068F9D7
:100E880000237B650023BB650023FB6507F1540342
:100E980019462B4804F06EFA0346002B01D000F0E7
:100EA80057F96023BB633223FB6300233B640823A9
:100EB8007B640023BB640023FB6400233B6507F1CC
:100EC8003803002219461E4803F014FB0346002B82
:100ED80001D000F03DF91A4B1B689A69184B1B6842
:100EE80022F008029A6100237B600023BB60002384
:100EF800FB6000233B6100237B610023BB6100236F
:100F0800FB6100233B6200237B624FF00073BB62EE
:100F18000023FB6200233B6300237B633B1D1946D0
:100F2800074804F0BBFA0346002B01D000F010F983
:100F3800034800F011FC00BF6037BD4680BD00BF0C
:100F4800A40500200034014080B500AF224B234A9D
:100F58001A60214B4FF4E1325A601F4B00229A600D
:100F68001D4B0022DA601C4B00221A611A4B082222
:100F78005A61194B00229A61174B0022DA61164B0D
:100F880000221A62144B00225A62134B00229A6202
:100F9800114804F078FB0346002B01D000F0D8F884
:100FA80000210D4805F09FF90346002B01D000F001
:100FB800CFF80021084805F0D4F90346002B01D0EA
:100FC80000F0C6F8044805F056F90346002B01D096
:100FD80000F0BEF800BF80BDF005002000500040C2
:100FE80080B582B000AF264B9B6C254A43F00403C2
:100FF8009364234B9B6C03F004037B607B68204B5A
:101008009B6C1F4A43F0010393641D4B9B6C03F0D8
:1010180001033B603B68002200210B2000F069FEC1
:101028000B2000F080FE002200210C2000F061FE61
:101038000C2000F078FE002200210D2000F059FE5F
:101048000D2000F070FE002200210E2000F051FE5D
:101058000E2000F068FE002200210F2000F049FE5B
:101068000F2000F060FE00220021102000F041FE59
:10107800102000F058FE00BF0837BD4680BD00BFF5
:101088000010024080B58AB000AF07F114030022B7
:101098001A605A609A60DA601A612B4BDB6C2A4A34
:1010A80043F02003D364284BDB6C03F020033B613F
:1010B8003B69254BDB6C244A43F00103D364224B84
:1010C800DB6C03F00103FB60FB681F4BDB6C1E4A03
:1010D80043F00203D3641C4BDB6C03F00203BB60D8
:1010E800BB68194BDB6C184A43F00403D364164BF6
:1010F800DB6C03F004037B607B68134BDB6C124AE8
:1011080043F00803D364104BDB6C03F008033B6027
:101118003B684FF400637B614FF48813BB61022383
:10112800FB6107F114031946084801F0D9FB0022B6
:101138000021282000F0DDFD282000F0F4FD00BF8C
:101148002837BD4680BD00BF001002400008004897
:1011580080B400AF72B600BF00BFFDE780B584B0B1
:1011680000AF78607B68002B01D1012341E07B68E8
:101178001B684CF6CC421A607B681B6845F25552D6
:101188001A607B681B687A6852685A607B681B68BB
:101198007A6892689A6000F0A9FCF8600FE000F0A5
:1011A800A5FC0246FB68D31A312B08D97B681B685B
:1011B800DB6803F00703002B01D0032319E07B68E9
:1011C8001B68DB6803F00703002BE8D17B681B680A
:1011D8001A697B68DB689A4205D07B681B687A6865
:1011E800D2681A6104E07B681B684AF6AA221A6072
:1011F800002318461037BD4680BD80B483B000AFC9
:1012080078607B681B684AF6AA221A600023184691
:101218000C37BD4680BC704780B582B000AF0F4B1D
:101228001B6E0E4A43F0010313660C4B1B6E03F052
:1012380001037B607B68094B9B6D084A43F0805330
:101248009365064B9B6D03F080533B603B6801F050
:101258008FFE00BF0837BD4680BD00BF00100240AA
:1012680080B58EB000AF786007F1240300221A60C1
:101278005A609A60DA601A617B681B686A4A93420E
:101288007BD16A4BDB6C694A43F48033D364674B88
:10129800DB6C03F480333B623B6A644BDB6C634A70
:1012A80043F00103D364614BDB6C03F00103FB6182
:1012B800FB6930237B620323BB620023FB6207F1D7
:1012C800240319464FF0904001F00AFB584B594A45
:1012D8001A60574B06225A60554B10229A60544B9D
:1012E8000022DA60524B80221A61514B4FF400728F
:1012F8005A614F4B4FF400629A614D4B0022DA61FC
:101308004B4B00221A624A4801F07AF80346002B38
:1013180001D0FFF71DFF7B68454A9A60444A7B6805
:101328009362454B454A1A60434B07225A60424B29
:1013380010229A60404B0022DA603F4B80221A61EB
:101348003D4B4FF400725A613B4B4FF400629A6177
:10135800394B0022DA61384B00221A62364801F014
:101368004FF80346002B01D0FFF7F2FE7B68324AA4
:10137800DA60314A7B6893620CE17B681B68304A0B
:10138800934263D1294BDB6C284A43F40033D3647E
:10139800264BDB6C03F40033BB61BB69234BDB6C6E
:1013A800224A43F00103D364204BDB6C03F00103B2
:1013B8007B617B6940237B620323BB620023FB6262
:1013C80007F1240319464FF0904001F089FA1D4BAC
:1013D8001D4A1A601B4B29225A601A4B10229A6028
:1013E800184B0022DA60174B80221A61154B4FF414
:1013F80000725A61134B4FF400629A61114B00223C
:10140800DA61104B00221A620E4800F0F9FF034619
:10141800002B01D0FFF79CFE7B680A4A9A60094AB4
:101428007B689362B6E000BF0008005000100240DD
:101438001802002008000240780200201C00024028
:10144800000C0050D8020020300002407B681B6866
:10145800524A934262D1524BDB6C514A43F4802387
:10146800D3644F4BDB6C03F480233B613B694D4BEA
:101478004D4A1A604B4B66225A604A4B10229A60BA
:10148800484B0022DA60474B80221A61454B4FF4E3
:1014980000725A61434B4FF400629A61414B00223B
:1014A800DA61404B00221A623E4800F0A9FF034669
:1014B800002B01D0FFF74CFE7B683A4A9A60394A04
:1014C8007B689362394B3A4A1A60384B67225A60F4
:1014D800364B10229A60354B0022DA60334B80225B
:1014E8001A61324B4FF400725A61304B4FF400626C
:1014F8009A612E4B0022DA612C4B00221A622B488B
:1015080000F07EFF0346002B01D0FFF721FE7B6829
:10151800264ADA60254A7B6893623BE07B681B6851
:10152800244A934236D11E4BDB6C1D4A43F40023F8
:10153800D3641B4BDB6C03F40023FB60FB681E4B7E
:101548001E4A1A601C4B68225A601B4B10229A6074
:10155800194B0022DA60184B80221A61164B4FF49F
:1015680000725A61144B4FF400629A61124B0022C8
:10157800DA61114B00221A620F4800F041FF03465E
:10158800002B01D0FFF7E4FD7B680B4A9A600A4AFA
:101598007B68936200BF3837BD4680BD001000509D
:1015A8000010024038030020440002409803002045
:1015B8005800024000140050F80300206C0002405C
:1015C80080B58AB000AF786007F1140300221A6072
:1015D8005A609A60DA601A617B681B682E4A9342E7
:1015E80019D12E4BDB6C2D4A43F00103D3642B4BEE
:1015F800DB6C03F001033B613B6904237B6103233C
:10160800BB610023FB6107F1140319464FF09040BA
:1016180001F066F93BE07B681B68214A934218D1C8
:101628001E4BDB6C1D4A43F00203D3641B4BDB6C7F
:1016380003F00203FB60FB6802237B610323BB61A9
:101648000023FB6107F114031946164801F048F915
:101658001DE07B681B68144A934218D10F4BDB6C62
:101668000E4A43F00203D3640C4BDB6C03F0020315
:10167800BB60BB684FF480537B610323BB610023CD
:10168800FB6107F114031946064801F029F900BF68
:101698002837BD4680BD00BF00030140001002404E
:1016A80008030140000400480C03014080B584B0E1
:1016B80000AF78607B681B68B3F1804F0CD1154B85
:1016C8009B6D144A43F001039365124B9B6D03F025
:1016D8000103FB60FB6818E07B681B680E4A9342B5
:1016E80013D10C4B9B6D0B4A43F002039365094BD6
:1016F8009B6D03F00203BB60BB68002200211D2024
:1017080000F0F7FA1D2000F00EFB00BF1037BD46B1
:1017180080BD00BF001002400004004080B485B0C6
:1017280000AF78607B681B68094A93420BD1094B6C
:101738001B6E084A43F400531366064B1B6E03F4F2
:101748000053FB60FB6800BF1437BD4680BC704780
:10175800003401400010024080B588B000AF7860C6
:1017680007F10C0300221A605A609A60DA601A6165
:101778007B681B68114A93421CD1114BDB6C104AE1
:1017880043F00403D3640E4BDB6C03F00403BB602B
:10179800BB684FF48063FB6002233B6100237B61DD
:1017A8000023BB610423FB6107F10C0319460548BC
:1017B80001F096F800BF2037BD4680BD00340140D7
:1017C800001002400008004880B5A0B000AF786063
:1017D80007F16C0300221A605A609A60DA601A6195
:1017E80007F1180354220021184604F045FE7B68CF
:1017F8001B682D4A934252D11023BB610023FB6220
:1018080007F11803184602F0EBF80346002B01D045
:10181800FFF79EFC254B9B6D244A43F48013936588
:10182800224B9B6D03F480137B617B691F4BDB6C40
:101838001E4A43F00403D3641C4BDB6C03F004031F
:101848003B613B69194BDB6C184A43F00803D364CE
:10185800164BDB6C03F00803FB60FB684FF4805306
:10186800FB6602233B6700237B670023BB670523D6
:10187800FB6707F16C0319460D4801F031F80423A2
:10188800FB6602233B6700237B670023BB670523B6
:10189800FB6707F16C031946064801F021F800BF01
:1018A8008037BD4680BD00BF005000400010024098
:1018B80000080048000C004880B400AF00BFFDE7F6
:1018C80080B400AF00BFFDE780B400AF00BFFDE704
:1018D80080B400AF00BFFDE780B400AF00BFFDE7F4
:1018E80080B400AF00BFBD4680BC704780B400AF75
:1018F80000BFBD4680BC704780B400AF00BFBD4686
:1019080080BC704780B500AF00F0DEF800BF80BD36
:1019180080B500AF024800F096FE00BF80BD00BF52
:101928001802002080B500AF024800F08CFE00BF0E
:1019380080BD00BF7802002080B500AF024800F0EB
:1019480082FE00BF80BD00BFD802002080B500AF76
:10195800024800F078FE00BF80BD00BF38030020B9
:1019680080B500AF024800F06EFE00BF80BD00BF2A
:101978009803002080B500AF024800F064FE00BF65
:1019880080BD00BFF803002080B500AFFEF7F8FE69
:10199800024802F05FFC00BF80BD00BF5805002070
:1019A80080B500AF4FF4006001F01CF9FEF702FFAC
:1019B80000BF80BD80B400AF00BFBD4680BC70478B
:1019C8000D488546FFF7F6FF0C480D490D4A0023E0
:1019D80002E0D458C4500433C4188C42F9D30A4ADC
:1019E8000A4C002301E013600432A242FBD304F046
:1019F8004BFDFEF78BFFFEE70000022000000020F1
:101A080090010020BC8C0708900100208806002067
:101A1800FEE7000080B582B000AF0023FB710C4BDD
:101A28001B680B4A43F480731360032000F056F9D7
:101A38000F2000F00FF80346002B02D00123FB71A2
:101A480001E0FFF7E9FBFB7918460837BD4680BD82
:101A58000020024080B584B000AF78600023FB739B
:101A6800164B1B68002B22D0154B1A68134B1B68AA
:101A78004FF47A71B1FBF3F3B2FBF3F3184600F0BD
:101A880060F90346002B0FD17B680F2B09D8002281
:101A980079684FF0FF3000F02CF90A4A7B68136030
:101AA80007E00123FB7304E00123FB7301E001233A
:101AB800FB73FB7B18461037BD4680BD8C010020A8
:101AC800840100208801002080B400AF054B1A680B
:101AD800054B1B681344034A136000BFBD4680BC16
:101AE800704700BF840600208C01002080B400AF3E
:101AF800024B1B681846BD4680BC70478406002010
:101B080080B584B000AF7860FFF7F0FFB8607B68FD
:101B1800FB60FB68B3F1FF3F04D0094B1B68FA6810
:101B28001344FB6000BFFFF7E1FF0246BB68D31A0E
:101B3800FA689A42F7D800BF00BF1037BD4680BD8B
:101B48008C01002080B485B000AF78607B6803F01A
:101B58000703FB600C4BDB68BB60BA684FF6FF03FA
:101B68001340BB60FB681A02BB68134343F0BF63B2
:101B780043F40033BB60044ABB68D36000BF14372A
:101B8800BD4680BC704700BF00ED00E080B400AFE8
:101B9800044BDB681B0A03F007031846BD4680BCEC
:101BA800704700BF00ED00E080B483B000AF03468B
:101BB800FB7197F90730002B0BDBFB7903F01F0251
:101BC800064997F907305B09012000FA02F241F84B
:101BD800232000BF0C37BD4680BC704700E100E001
:101BE80080B483B000AF03463960FB7197F90730C2
:101BF800002B0ADB3B68DAB20C4997F9073012016F
:101C0800D2B20B4483F800230AE03B68DAB20849F1
:101C1800FB7903F00F03043B1201D2B20B441A768E
:101C280000BF0C37BD4680BC704700BF00E100E034
:101C380000ED00E080B489B000AFF860B9607A6068
:101C4800FB6803F00703FB61FB69C3F10703042B7F
:101C580028BF0423BB61FB690433062B02D9FB6947
:101C6800033B00E000237B614FF0FF32BB6902FABF
:101C780003F3DA43BB681A407B699A404FF0FF319F
:101C88007B6901FA03F3D9437B680B401343184679
:101C98002437BD4680BC704780B582B000AF7860FD
:101CA8007B68013BB3F1807F01D301230FE00A4A2F
:101CB8007B68013B53600F214FF0FF30FFF790FF27
:101CC800054B00229A60044B07221A60002318462D
:101CD8000837BD4680BD00BF10E000E080B582B087
:101CE80000AF78607868FFF72DFF00BF0837BD4662
:101CF80080BD80B586B000AF0346B9607A60FB73DB
:101D0800FFF744FF78617A68B9687869FFF792FF4E
:101D1800024697F90F3011461846FFF761FF00BFDA
:101D28001837BD4680BD80B582B000AF0346FB7151
:101D380097F907301846FFF737FF00BF0837BD4649
:101D480080BD80B582B000AF78607868FFF7A4FFE7
:101D5800034618460837BD4680BD80B582B000AF3F
:101D680078607B68002B01D1012314E07B681B7924
:101D7800DBB2002B05D17B6800225A717868FFF727
:101D88006FFA7B6802221A717B6800221A617B68ED
:101D980001221A71002318460837BD4680BD00008D
:101DA80080B588B000AFF860B9607A603B60FB68C6
:101DB800002B01D10123B2E0FB685B79012B01D133
:101DC8000223ACE0FB6801225A71FB6802221A71F7
:101DD800BB68002B29D1FB689B68534ADA62FB6811
:101DE8009B68524A1A63FB689B68514A5A63FB68AE
:101DF8001B681A68FB681B6842F480521A60BB6A49
:101E0800002B03D0BB6A042B05D009E0FB681B68D4
:101E18000833BB6133E0FB681B680C33BB612EE001
:101E2800FB681B681033BB6129E0FB68DB68414A2B
:101E3800DA62FB68DB68404A1A63FB68DB683F4A82
:101E48005A63FB681B681A68FB681B6842F080527B
:101E58001A60BB6A002B03D0BB6A042B05D009E0CB
:101E6800FB681B681433BB6109E0FB681B68183307
:101E7800BB6104E0FB681B681C33BB6100BFBB6827
:101E8800002B11D1FB681B681A68FB681B6842F4B9
:101E980000521A60FB68986879683B68BA6900F074
:101EA80057FB0346FB7710E0FB681B681A68FB6862
:101EB8001B6842F000521A60FB68D86879683B6872
:101EC800BA6900F045FB0346FB77FB6800225A71AC
:101ED800FB7F002B1CD1FB681B681968BB6803F0EB
:101EE800100301229A40FB681B680A431A60144BCE
:101EF8001B689B09134AA2FB03239B0901337B61DF
:101F080002E07B69013B7B617B69002BF9D105E02D
:101F1800FB681B6943F00402FB681A61FB7F1846E3
:101F28002037BD4680BD00BFF92200081B230008EA
:101F3800372300089B230008BD230008D923000885
:101F480084010020632D3E0580B483B000AF786023
:101F580000BF0C37BD4680BC704780B483B000AF6B
:101F6800786000BF0C37BD4680BC704780B483B032
:101F780000AF786000BF0C37BD4680BC70470000DA
:101F880080B58AB000AFF860B9607A600023FB774B
:101F9800FB68002B02D0BB68002B01D101239EE116
:101FA800FB685B79012B01D1022398E1FB680122D0
:101FB8005A71FB6802221A71BB689B68042B7AD19C
:101FC800FFF794FDB8617B68002B3DD118E0FFF75F
:101FD8008DFD0246BB69D31A012B11D9FB681B681A
:101FE8005B6B03F40043002B0AD0FB681B6943F0CA
:101FF8000802FB681A61FB6803221A7103236EE169
:10200800FB681B685B6B03F40043002BDFD1FB68A4
:102018001B68BA68526A1A6420E0FFF767FD024637
:10202800BB69D31A012B0FD9FB681B685B6B002BAC
:102038000ADAFB681B6943F00802FB681A61FB684F
:1020480003221A7103234AE1FB681B685B6B002BB0
:10205800E3DBFB681B68BA68526A5A64FB681B6852
:102068009A6C7B6803F0100340F2FF3101FA03F326
:10207800DB4302EA0301BB689A6A7B6803F010033A
:102088009A40FB681B680A439A64FB681B68DA6C11
:102098007B6803F01003FF2101FA03F3DB4302EA34
:1020A8000301BB68DA6A7B6803F010039A40FB6897
:1020B8001B680A43DA64BB68DB69012B1DD1FB6826
:1020C8001B689B6B7B627B6803F010031F2202FA7C
:1020D80003F3DB437A6A13407B62BB681B6A7B614C
:1020E8007B6803F010037A6902FA03F37A6A1343F0
:1020F8007B62FB681B687A6A9A63FB681B68DB6B08
:102108007B627B6803F01003072202FA03F3DB43C8
:102118007A6A13407B62BB689B69012B02D100235A
:102128003B620FE0BB689B69022B02D101233B6233
:1021380008E0BB685B69002B02D101233B6201E028
:1021480000233B62BB689A68BB685B6913433A6AC1
:1021580013437B617B6803F010034FF4807202FA2B
:1021680003F3DB437A6A13407B62BB681B79012B5C
:1021780002D14FF4807300E000237A6913437B6136
:102188007B6803F010034FF4007202FA03F3DB4399
:102198007A6A13407B62BB685B79012B02D14FF4EA
:1021A800007300E000237A6913437B617B6A23F4A0
:1021B80040437B62BB681B68022B14D101F094FB7F
:1021C80038613B69484A934204D97B6A43F4004327
:1021D8007B620FE03B69454A93420AD97B6A43F424
:1021E80080437B6206E0BB681B687A6A13437B62A4
:1021F80000E000BF7B6803F010037A6902FA03F37A
:102208007A6A13437B62FB681B687A6ADA63FB6845
:102218001B6819687B6803F010034FF4804202FAC8
:1022280003F3DA43FB681B680A401A60FB681B6803
:102238001B687B627B6803F0100340F6FE7202FAAB
:1022480003F3DB437A6A13407B62BB68DB687B611C
:102258007B6803F010037A6902FA03F37A6A13437E
:102268007B62FB681B687A6A1A60FB681B681968DE
:102278007B6803F01003C02202FA03F3DA43FB6819
:102288001B680A401A60BB68DB689B0803F00F03F1
:102298007B61BB681B699B081B0203F470637A6946
:1022A80013437B61FB681B681A6E7B6803F010039D
:1022B80040F60F7101FA03F3DB4302EA03017B687E
:1022C80003F010037A699A40FB681B680A431A6690
:1022D800FB6801221A71FB6800225A71FB7F1846BD
:1022E8002837BD4680BD00BF0068890900B4C40412
:1022F80080B584B000AF78607B689B6AFB60F86843
:10230800FFF722FEFB6801221A7100BF1037BD4695
:1023180080BD80B584B000AF78607B689B6AFB6045
:10232800F868FFF71AFE00BF1037BD4680BD80B5BC
:1023380084B000AF78607B689B6AFB60FB681B69B0
:1023480043F00402FB681A61F868FFF70FFEFB68A8
:1023580001221A7100BF1037BD4680BD80B483B01A
:1023680000AF786000BF0C37BD4680BC704780B4B2
:1023780083B000AF786000BF0C37BD4680BC7047A3
:1023880080B483B000AF786000BF0C37BD4680BC16
:10239800704780B584B000AF78607B689B6AFB604B
:1023A800F868FFF7DBFFFB6801221A7100BF1037DE
:1023B800BD4680BD80B584B000AF78607B689B6AFD
:1023C800FB60F868FFF7D3FF00BF1037BD4680BD3C
:1023D80080B584B000AF78607B689B6AFB60FB685F
:1023E8001B6943F00402FB681A61F868FFF7C8FF2D
:1023F800FB6801221A7100BF1037BD4680BD00007E
:1024080080B584B000AF78607B68002B01D10123D0
:102418008DE07B681B681A46474B9A420FD87B6849
:102428001B681A46454B1344454AA2FB03231B0964
:102438009A007B685A647B68424A1A640EE07B689B
:102448001B681A46404B13443D4AA2FB03231B0951
:102458009A007B685A647B683C4A1A647B6802224B
:1024680083F825207B681B681B68FB60FB6823F4E6
:10247800FF4323F07003FB607B689A687B68DB6826
:102488001A437B681B691A437B685B691A437B683C
:102498009B691A437B68DB691A437B681B6A134391
:1024A800FA681343FB607B681B68FA681A607868EF
:1024B80000F0B6F97B689B68B3F5804F02D17B6862
:1024C80000225A607B685A687B689B6CD2B21A609B
:1024D8007B68DB6C7A68126D5A607B685B68002BDE
:1024E80010D07B685B68042B0CD8786800F0D4F9AE
:1024F8007B685B6D00221A607B689B6D7A68D26D81
:102508005A6008E07B6800225A657B6800229A6559
:102518007B680022DA657B680022DA637B68012227
:1025280083F825207B68002283F82420002318469E
:102538001037BD4680BD00BF07040240F8FFFDBF4D
:10254800CDCCCCCC00000240F8FBFDBF000402401B
:1025580080B586B000AFF860B9607A603B60002350
:10256800FB75FB6893F82430012B01D1022366E048
:10257800FB68012283F82420FB6893F82530DBB23E
:10258800012B55D1FB68022283F82520FB68002225
:10259800DA63FB681B681A68FB681B6822F0010293
:1025A8001A603B687A68B968F86800F0FBF8FB685D
:1025B8001B6B002B08D0FB681B681A68FB681B683C
:1025C80042F00E021A600FE0FB681B681A68FB688D
:1025D8001B6822F004021A60FB681B681A68FB6813
:1025E8001B6842F00A021A60FB689B6C1B6803F4C4
:1025F8008033002B07D0FB689B6C1A68FB689B6CC8
:1026080042F480721A60FB685B6D002B07D0FB6890
:102618005B6D1A68FB685B6D42F480721A60FB6838
:102628001B681A68FB681B6842F001021A6005E023
:10263800FB68002283F824200223FB75FB7D1846E3
:102648001837BD4680BD80B584B000AF78607B6820
:102658001B6C1B68FB607B681B681B68BB607B6826
:102668005B6C03F01F0304229A40FB681340002BA5
:1026780026D0BB6803F00403002B21D07B681B68BD
:102688001B6803F02003002B07D17B681B681A68BE
:102698007B681B6822F004021A607B685B6C03F09D
:1026A8001F027B681B6C042101FA02F25A607B68E6
:1026B8001B6B002B71D07B681B6B786898476CE0AC
:1026C8007B685B6C03F01F0302229A40FB6813408F
:1026D800002B2ED0BB6803F00203002B29D07B68A7
:1026E8001B681B6803F02003002B0BD17B681B6859
:1026F8001A687B681B6822F00A021A607B6801224C
:1027080083F825207B685B6C03F01F027B681B6CD9
:10271800022101FA02F25A607B68002283F8242021
:102728007B68DB6A002B38D07B68DB6A786898475F
:1027380033E07B685B6C03F01F0308229A40FB6858
:102748001340002B2AD0BB6803F00803002B25D0C8
:102758007B681B681A687B681B6822F00E021A6087
:102768007B685B6C03F01F027B681B6C012101FA1C
:1027780002F25A607B680122DA637B68012283F8DF
:1027880025207B68002283F824207B685B6B002B64
:1027980004D07B685B6B7868984700BF00BF103730
:1027A800BD4680BD80B485B000AFF860B9607A607E
:1027B8003B60FB68DB6CFA68126D5A60FB685B6D06
:1027C800002B04D0FB689B6DFA68D26D5A60FB68D9
:1027D8005B6C03F01F02FB681B6C012101FA02F21B
:1027E8005A60FB681B683A685A60FB689B68102B44
:1027F80008D1FB681B687A689A60FB681B68BA682E
:10280800DA6007E0FB681B68BA689A60FB681B68B7
:102818007A68DA6000BF1437BD4680BC7047000094
:1028280080B487B000AF78607B681B681A46154B88
:102838009A4202D8144B7B6101E0144B7B617B699F
:102848003B617B681B68DBB2083B114AA2FB032390
:102858001B09FB607B685B6C9B089A003B6913440F
:102868001A467B689A647B680A4ADA64FB6803F054
:102878001F0301229A407B681A6500BF1C37BD46BA
:1028880080BC70470704024000080240200802404C
:10289800CDCCCCCC8008024080B485B000AF786045
:1028A8007B685B68DBB2FB60FA680B4B13449B00E8
:1028B8001A467B685A657B68084A9A65FB68013B3B
:1028C80003F01F0301229A407B68DA6500BF1437C2
:1028D800BD4680BC704700BF3F82001040090240DF
:1028E80080B487B000AF7860396000237B615AE11B
:1028F8003B681A6801217B6901FA03F31340FB6006
:10290800FB68002B00F04C813B685B6803F0030315
:10291800012B05D03B685B6803F00303022B30D121
:102928007B689B683B617B695B00032202FA03F3C7
:10293800DB433A6913403B613B68DA687B695B00BB
:1029480002FA03F33A6913433B617B683A699A6078
:102958007B685B683B6101227B6902FA03F3DB4316
:102968003A6913403B613B685B681B0903F001024D
:102978007B6902FA03F33A6913433B617B683A695E
:102988005A603B685B6803F00303032B17D07B682E
:10299800DB683B617B695B00032202FA03F3DB43DC
:1029A8003A6913403B613B689A687B695B0002FAAD
:1029B80003F33A6913433B617B683A69DA603B6821
:1029C8005B6803F00303022B23D17B69DA087B6879
:1029D800083253F822303B617B6903F007039B0000
:1029E8000F2202FA03F3DB433A6913403B613B6869
:1029F8001A697B6903F007039B0002FA03F33A693B
:102A080013433B617B69DA087B680832396943F80C
:102A180022107B681B683B617B695B00032202FA1A
:102A280003F3DB433A6913403B613B685B6803F09F
:102A380003027B695B0002FA03F33A6913433B61C3
:102A48007B683A691A603B685B6803F44033002B83
:102A580000F0A6805B4B1B6E5A4A43F001031366D5
:102A6800584B1B6E03F00103BB60BB68564A7B6979
:102A78009B08023352F823303B617B6903F0030360
:102A88009B000F2202FA03F3DB433A6913403B61D0
:102A98007B68B3F1904F1FD07B684C4A934219D0A2
:102AA8007B684B4A934213D07B684A4A93420DD0C5
:102AB8007B68494A934207D07B68484A934201D1D0
:102AC80005230AE0062308E0042306E0032304E0C4
:102AD800022302E0012300E000237A6902F00302E6
:102AE800920093403A6913433B6137497B699B08DD
:102AF80002333A6941F82320394B9B683B61FB68F4
:102B0800DB433A6913403B613B685B6803F480131D
:102B1800002B03D03A69FB6813433B61304A3B6999
:102B280093602F4BDB683B61FB68DB433A691340DA
:102B38003B613B685B6803F40013002B03D03A69E0
:102B4800FB6813433B61264A3B69D360244B5B68AF
:102B58003B61FB68DB433A6913403B613B685B6858
:102B680003F40033002B03D03A69FB6813433B613D
:102B78001B4A3B6953601A4B1B683B61FB68DB438C
:102B88003A6913403B613B685B6803F48033002B70
:102B980003D03A69FB6813433B61114A3B691360F0
:102BA8007B6901337B613B681A687B6922FA03F30E
:102BB800002B7FF49DAE00BF00BF1C37BD4680BC14
:102BC800704700BF001002400000014000040048A8
:102BD80000080048000C0048001000480014004895
:102BE8000004014080B582B000AF0346FB80084B6B
:102BF8005A69FB881340002B06D0054AFB885361AD
:102C0800FB88184600F006F800BF0837BD4680BDAF
:102C18000004014080B483B000AF0346FB8000BFCE
:102C28000C37BD4680BC704780B584B000AF786073
:102C38000023FB737B68002B01D10123BBE07B6879
:102C480093F83A30DBB2052B01D10123B3E07B685E
:102C580093F83A30DBB2022B01D10123ABE0584B99
:102C68001B6E574A43F001031366554B1B6E03F066
:102C78000103BB60BB687B6893F83A30DBB2002B7A
:102C880003D17B68002283F839207868FEF798FC26
:102C98007B689B68402B03D07B689B68602B33D193
:102CA8007B681B681B6823F010017B68DA6A7B6805
:102CB8001B680A431A607B681B681A68414B1340FB
:102CC8007A6851687A68926811437A6812690A4387
:102CD8007968097D012902D14FF4807100E0002153
:102CE80011437A68526A11437A68926A11437A6882
:102CF800126BD20411437A68526B120611437A6838
:102D080012680B43136035E07B681B681B6823F06F
:102D180010017B68DA6A7B681B680A431A607B6863
:102D28001B681A68274B13407A6851687A6892685A
:102D380011437A68D26811437A6812690A4379683C
:102D4800097D012902D14FF4807100E0002111436F
:102D58007A68526A11437A68926A11437A68126BE8
:102D6800D20411437A68526B120611437A681268CA
:102D78000B4313607B681B689B69002B10DB7B6827
:102D88001B689B6923F03F017B689A697B68DB6954
:102D98001A437B681B6A1A437B681B680A439A615B
:102DA8007B6893F83A30DBB2002B03D17B680122B1
:102DB80083F83A20FB7B18461037BD4680BD00BF1C
:102DC80000100240113E00E080B485B000AF78608A
:102DD8000023FB737B68002B02D10123FB731DE0EA
:102DE8007B6893F83A30DBB2052B02D10123FB73E1
:102DF80014E07B6893F83A30DBB2012B0CD17B6886
:102E08001B681A687B681B6842F001021A607B68BD
:102E1800042283F83A2001E00123FB73FB7B184668
:102E28001437BD4680BC704780B485B000AF786069
:102E38007B68002B41D14B4B1B6803F4C063B3F58F
:102E4800806F31D1474BD3F88030464A23F48073E2
:102E5800C2F88030434B1B6823F4C063414A43F4F3
:102E680000731360404B1B68322202FB03F33F4A96
:102E7800A2FB03239B0C0133FB6002E0FB68013BD0
:102E8800FB60384B5B6903F48063B3F5806F02D154
:102E9800FB68002BF2D1334B5B6903F48063B3F515
:102EA800806F58D1032357E02E4BD3F880302D4A3A
:102EB80023F48073C2F880304DE07B68B3F5007F5F
:102EC80041D1284B1B6803F4C063B3F5806F31D13F
:102ED800244BD3F88030234A43F48073C2F88030FF
:102EE800204B1B6823F4C0631E4A43F4007313602D
:102EF8001D4B1B68322202FB03F31C4AA2FB03236F
:102F08009B0C0133FB6002E0FB68013BFB60154B47
:102F18005B6903F48063B3F5806F02D1FB68002B13
:102F2800F2D1104B5B6903F48063B3F5806F12D163
:102F3800032311E00B4BD3F880300A4A43F4807323
:102F4800C2F8803007E0074B1B6823F4C063054ACA
:102F580043F480631360002318461437BD4680BCD1
:102F6800704700BF007000408401002083DE1B43CF
:102F780080B400AF044B9B68034A43F480439360DA
:102F880000BFBD4680BC70470070004080B588B067
:102F980000AF78607B68002B01D10123FEE27B68DB
:102FA8001B6803F00103002B75D0974B9B6803F057
:102FB8000C03BB61944BDB6803F003037B61BB69C3
:102FC8000C2B02D17B69032B02D0BB69082B0BD1D8
:102FD8008D4B1B6803F40033002B5BD07B685B6868
:102FE800002B57D10123D9E27B685B68B3F5803F9A
:102FF80006D1854B1B68844A43F4803313601DE077
:103008007B685B68B3F5A02F0CD17F4B1B687E4AA9
:1030180043F4802313607C4B1B687B4A43F4803362
:1030280013600BE0784B1B68774A23F480331360F6
:10303800754B1B68744A23F4802313607B685B68B4
:10304800002B13D0FEF752FD386108E0FEF74EFD65
:1030580002463B69D31A642B01D903239EE26A4BCB
:103068001B6803F40033002BF0D014E0FEF73EFD9C
:10307800386108E0FEF73AFD02463B69D31A642B33
:1030880001D903238AE2604B1B6803F40033002B49
:10309800F0D100E000BF7B681B6803F00203002B3F
:1030A80075D0594B9B6803F00C03BB61564BDB682A
:1030B80003F003037B61BB690C2B02D17B69022BF4
:1030C80002D0BB69042B1FD14F4B1B6803F48063EC
:1030D800002B05D07B68DB68002B01D101235DE262
:1030E800494B5B6823F0FE427B681B691B06464917
:1030F80013434B60454B1B681846FEF7ABFC034671
:10310800002B43D0012349E27B68DB68002B23D0E6
:103118003D4B1B683C4A43F480731360FEF7E6FCA2
:10312800386108E0FEF7E2FC02463B69D31A022B3D
:1031380001D9032332E2344B1B6803F48063002B6C
:10314800F0D0314B5B6823F0FE427B681B691B069D
:103158002D4913434B601AE02B4B1B682A4A23F472
:1031680080731360FEF7C2FC386108E0FEF7BEFC0E
:1031780002463B69D31A022B01D903230EE2224BE4
:103188001B6803F48063002BF0D100E000BF7B686C
:103198001B6803F00803002B41D07B685B69002B98
:1031A8001CD0194BD3F89430174A43F00103C2F8E6
:1031B8009430FEF79BFC386108E0FEF797FC024666
:1031C8003B69D31A022B01D90323E7E10E4BD3F84D
:1031D800943003F00203002BEFD020E00A4BD3F821
:1031E8009430094A23F00103C2F89430FEF77EFCBC
:1031F80038610DE0FEF77AFC02463B69D31A022BD0
:1032080006D90323CAE100BF00100240880100204C
:103218008C4BD3F8943003F00203002BEAD17B687F
:103228001B6803F00403002B00F0A6800023FB7743
:10323800844B9B6D03F08053002B01D1012300E0E8
:103248000023002B0DD07F4B9B6D7E4A43F08053AB
:1032580093657C4B9B6D03F08053FB60FB680123F7
:10326800FB77794B1B6803F48073002B18D1764BDE
:103278001B68754A43F480731360FEF737FC3861A6
:1032880008E0FEF733FC02463B69D31A022B01D94A
:10329800032383E16C4B1B6803F48073002BF0D08D
:1032A8007B689B68012B08D1664BD3F89030654A40
:1032B80043F00103C2F8903024E07B689B68052B3B
:1032C80010D1604BD3F890305E4A43F00403C2F843
:1032D80090305C4BD3F890305A4A43F00103C2F85F
:1032E80090300FE0574BD3F89030564A23F0010343
:1032F800C2F89030534BD3F89030524A23F004036D
:10330800C2F890307B689B68002B16D0FEF7EEFB66
:1033180038610AE0FEF7EAFB02463B69D31A41F23C
:103328008832934201D9032338E1464BD3F89030D1
:1033380003F00203002BEDD015E0FEF7D7FB386150
:103348000AE0FEF7D3FB02463B69D31A41F2883202
:10335800934201D9032321E13A4BD3F8903003F08B
:103368000203002BEDD1FB7F012B05D1354B9B6D63
:10337800344A23F0805393657B681B6803F020036D
:10338800002B3CD07B689B69002B1CD02D4BD3F8BD
:1033980098302C4A43F00103C2F89830FEF7A6FB98
:1033A800386108E0FEF7A2FB02463B69D31A022BFC
:1033B80001D90323F2E0234BD3F8983003F002033A
:1033C800002BEFD01BE01F4BD3F898301D4A23F099
:1033D8000103C2F89830FEF789FB386108E0FEF770
:1033E80085FB02463B69D31A022B01D90323D5E09A
:1033F800144BD3F8983003F00203002BEFD17B680D
:10340800DB69002B00F0C9800E4B9B6803F00C03AE
:103418000C2B00F083807B68DB69022B5ED1094BA3
:103428001B68084A23F080731360FEF75FFB38615E
:103438000CE0FEF75BFB02463B69D31A022B05D969
:103448000323ABE00010024000700040554B1B689E
:1034580003F00073002BECD1524BDA68524B134047
:103468007A68116A7A68526A013A120111437A68D5
:10347800926A120211437A68126B5208013A520595
:1034880011437A68526B5208013A520611437A681E
:10349800D26AD2060A4343491343CB60414B1B68A7
:1034A800404A43F0807313603E4BDB683D4A43F06B
:1034B8008073D360FEF71AFB386108E0FEF716FB4D
:1034C80002463B69D31A022B01D9032366E0354B28
:1034D8001B6803F00073002BF0D05EE0314B1B68D3
:1034E800304A23F080731360FEF700FB386108E070
:1034F800FEF7FCFA02463B69D31A022B01D90323D3
:103508004CE0284B1B6803F00073002BF0D1254BCF
:10351800DA682449254B1340CB603EE07B68DB69C1
:10352800012B01D1012339E01E4BDB687B617B69EC
:1035380003F003027B681B6A9A422CD17B6903F073
:10354800F0027B685B6A013B1B019A4223D17B69CD
:1035580003F4FE427B689B6A1B029A421BD17B697B
:1035680003F078427B68DB6ADB069A4213D17B69F9
:1035780003F4C0027B681B6B5B08013B5B059A4246
:1035880009D17B6903F0C0627B685B6B5B08013B18
:103598005B069A4201D0012300E000231846203739
:1035A800BD4680BD001002400C809F01FCFFEEFE6E
:1035B80080B586B000AF7860396000237B617B6896
:1035C800002B01D101231EE1914B1B6803F00F036F
:1035D8003A689A4210D98E4B1B6823F00F028C4927
:1035E8003B6813430B608A4B1B6803F00F033A6870
:1035F8009A4201D0012306E17B681B6803F00103AE
:10360800002B73D07B685B68032B29D1814B1B6827
:1036180003F00073002B01D10123F4E000F09AF9C4
:1036280038613B697C4A93423FD97A4B9B6803F0E7
:10363800F003002B09D07B681B6803F00203002B02
:1036480033D07B689B68002B2FD1724B9B6823F08B
:10365800F003704A43F08003936080237B6124E089
:103668007B685B68022B07D16A4B1B6803F4003345
:10367800002B09D10123C6E0664B1B6803F4806365
:10368800002B01D10123BEE000F0CEF838613B6980
:10369800614A934209D95F4B9B6823F0F0035D4A66
:1036A80043F08003936080237B615A4B9B6823F02F
:1036B80003027B685B68574913438B60FEF716FA71
:1036C800F8600AE0FEF712FA0246FB68D31A41F2E4
:1036D8008832934201D9032395E04E4B9B6803F04F
:1036E8000C027B685B689B009A42EBD17B681B6885
:1036F80003F00203002B23D07B681B6803F004034C
:10370800002B05D0434B9B68424A43F4E063936027
:103718007B681B6803F00803002B07D03D4B9B68B0
:1037280023F47C533B4A43F4E0639360394B9B6832
:1037380023F0F0027B689B68364913438B6008E0EE
:103748007B69802B05D1334B9B68324A23F0F00309
:1037580093602F4B1B6803F00F033A689A421DD2FF
:103768002B4B1B6823F00F0229493B6813430B605E
:10377800FEF7BCF9F8600AE0FEF7B8F90246FB6804
:10378800D31A41F28832934201D903233BE0204BFC
:103798001B6803F00F033A689A42EDD17B681B68F7
:1037A80003F00403002B08D01A4B9B6823F4E06253
:1037B8007B68DB68174913438B607B681B6803F0E1
:1037C8000803002B09D0134B9B6823F460527B68D5
:1037D8001B69DB000F4913438B6000F025F8024694
:1037E8000C4B9B681B0903F00F030C49CB5C03F0DF
:1037F8001F0322FA03F30A4A13600A4B1B68184690
:10380800FEF728F9034618461837BD4680BD00BFA5
:10381800002002400010024000B4C4046C8C070869
:10382800840100208801002080B487B000AF2B4BB2
:103838009B6803F00C03042B02D1294B3B6147E042
:10384800264B9B6803F00C03082B02D1254B3B61E8
:103858003EE0224B9B6803F00C030C2B36D11F4B28
:10386800DB6803F00303FB601C4BDB681B0903F0F8
:103878000F030133BB60FB68032B0CD1194ABB68EB
:10388800B2FBF3F3154AD268120A02F07F0202FB78
:1038980003F37B610CE0124ABB68B2FBF3F30F4AF7
:1038A800D268120A02F07F0202FB03F37B6100BFB9
:1038B8000A4BDB685B0E03F0030301335B007B609C
:1038C8007A697B68B2FBF3F33B6101E000233B615B
:1038D8003B6918461C37BD4680BC70470010024043
:1038E8000024F40000127A0080B400AF024B1B6879
:1038F8001846BD4680BC70478401002080B500AFE3
:10390800FFF7F2FF0246064B9B681B0A03F007030A
:103918000449CB5C03F01F0322FA03F3184680BD69
:10392800001002407C8C070880B500AFFFF7DCFF71
:103938000246064B9B68DB0A03F007030449CB5C8D
:1039480003F01F0322FA03F3184680BD001002405B
:103958007C8C070880B487B000AF1E4BDB6803F08F
:1039680003033B611B4BDB681B0903F00F030133A7
:10397800FB603B69032B0CD1174AFB68B2FBF3F3DE
:10398800144AD268120A02F07F0202FB03F37B6139
:103998000CE0124AFB68B2FBF3F30E4AD268120A33
:1039A80002F07F0202FB03F37B6100BF094BDB6877
:1039B8005B0E03F0030301335B00BB607A69BB68ED
:1039C800B2FBF3F37B607B6818461C37BD4680BCAE
:1039D800704700BF0010024000127A000024F40073
:1039E80080B586B000AF78600023FB740023BB74F9
:1039F8007B681B6803F40023002B00F098800023E9
:103A08007B74434B9B6D03F08053002B0DD1404BCF
:103A18009B6D3F4A43F0805393653D4B9B6D03F08C
:103A28008053BB60BB6801237B743A4B1B68394ADF
:103A380043F480731360FEF759F8F86009E0FEF765
:103A480055F80246FB68D31A022B02D90323FB74EC
:103A580005E0304B1B6803F48073002BEFD0FB7C30
:103A6800002B59D12A4BD3F8903003F440737B6173
:103A78007B69002B1ED07B681B6D7A699A4219D02E
:103A8800234BD3F8903023F440737B61204BD3F859
:103A980090301F4A43F48033C2F890301C4BD3F85F
:103AA80090301B4A23F48033C2F89030184A7B695F
:103AB800C2F890307B6903F00103002B16D0FEF7A3
:103AC80015F8F8600BE0FEF711F80246FB68D31A08
:103AD80041F28832934202D90323FB7406E00C4B6F
:103AE800D3F8903003F00203002BECD0FB7C002BC2
:103AF8000BD1074BD3F8903023F440727B681B6DD1
:103B080003491343C1F8903008E0FB7CBB7405E01F
:103B18000010024000700040FB7CBB747B7C012BD2
:103B280005D1A74B9B6DA64A23F0805393657B680C
:103B38001B6803F00103002B0AD0A14BD3F888308F
:103B480023F003027B685B689D491343C1F8883002
:103B58007B681B6803F00203002B0AD0984BD3F84C
:103B6800883023F00C027B689B6895491343C1F8A1
:103B780088307B681B6803F00403002B0AD0904B45
:103B8800D3F8883023F030027B68DB688C49134314
:103B9800C1F888307B681B6803F00803002B0AD043
:103BA800874BD3F8883023F0C0027B681B698449AF
:103BB8001343C1F888307B681B6803F01003002B9F
:103BC8000AD07F4BD3F8883023F440727B685B6956
:103BD8007B491343C1F888307B681B6803F02003D6
:103BE800002B0AD0764BD3F8883023F440627B68E8
:103BF8009B6973491343C1F888307B681B6803F0DD
:103C08004003002B0AD06E4BD3F8883023F440527F
:103C18007B68DB696A491343C1F888307B681B6895
:103C280003F08003002B0AD0654BD3F8883023F4C7
:103C380040427B681B6A62491343C1F888307B683D
:103C48001B6803F48073002B0AD05D4BD3F88830CF
:103C580023F440327B685B6A59491343C1F88830C2
:103C68007B681B6803F40033002B0AD0544BD3F84D
:103C78009C3023F003027B689B6A51491343C1F8C7
:103C88009C307B681B6803F40073002B0AD04C4BF4
:103C9800D3F8883023F440227B68DB6A4849134311
:103CA800C1F888307B681B6803F48063002B15D04B
:103CB800434BD3F8883023F440127B681B6B404990
:103CC8001343C1F888307B681B6BB3F5801F05D19F
:103CD8003B4BDB683A4A43F48013D3607B681B682C
:103CE80003F40063002B15D0354BD3F8883023F448
:103CF80040027B685B6B32491343C1F888307B68AC
:103D08005B6BB3F5800F05D12D4BDB682C4A43F470
:103D18008013D3607B681B6803F48053002B15D095
:103D2800274BD3F8883023F040727B689B6B24497B
:103D38001343C1F888307B689B6BB3F1807F05D152
:103D48001F4BDB681E4A43F48013D3607B681B68F3
:103D580003F40053002B15D0194BD3F8883023F007
:103D680040627B68DB6B16491343C1F888307B6877
:103D7800DB6BB3F1006F05D1114BDB68104A43F4DC
:103D88008013D3607B681B6803F48043002B19D031
:103D98000B4BD3F8883023F040627B681B6C0849D2
:103DA8001343C1F888307B681B6CB3F1006F09D1ED
:103DB800034BDB68024A43F48013D36002E000BF80
:103DC800001002407B681B6803F40043002B15D0E9
:103DD800294BD3F8883023F040527B685B6C264926
:103DE8001343C1F888307B685B6CB3F1805F05D101
:103DF800214BDB68204A43F48033D3607B681B681F
:103E080003F48033002B15D01B4BD3F8883023F0F4
:103E180040427B689B6C18491343C1F888307B6823
:103E28009B6CB3F1804F05D1134BDB68124A43F406
:103E38008033D3607B681B6803F48023002B15D084
:103E48000D4BD3F89C3023F440127B68DB6C0A4995
:103E58001343C1F89C307B68DB6CB3F5001F05D1B8
:103E6800054BDB68044A43F48013D360BB7C1846D7
:103E78001837BD4680BD00BF0010024080B582B033
:103E880000AF78607B68002B01D1012349E07B6893
:103E980093F83D30DBB2002B06D17B68002283F813
:103EA8003C207868FDF702FC7B68022283F83D20FD
:103EB8007B681A687B6804331946104600F072FD67
:103EC8007B68012283F848207B68012283F83E2022
:103ED8007B68012283F83F207B68012283F8402019
:103EE8007B68012283F841207B68012283F8422005
:103EF8007B68012283F843207B68012283F84420F1
:103F08007B68012283F845207B68012283F84620DC
:103F18007B68012283F847207B68012283F83D20D3
:103F2800002318460837BD4680BD000080B485B020
:103F380000AF78607B6893F83D30DBB2012B01D08D
:103F480001234CE07B68022283F83D207B681B68D4
:103F5800254A934222D07B681B68B3F1804F1DD05D
:103F68007B681B68214A934218D07B681B68204AEB
:103F7800934213D07B681B681E4A93420ED07B681D
:103F88001B681D4A934209D07B681B681B4A9342F1
:103F980004D07B681B681A4A934215D17B681B685A
:103FA8009A68184B1340FB60FB68062B15D0FB681A
:103FB800B3F5803F11D07B681B681A687B681B6863
:103FC80042F001021A6008E07B681B681A687B6887
:103FD8001B6842F001021A6000E000BF0023184687
:103FE8001437BD4680BC7047002C014000040040D7
:103FF80000080040000C004000340140004001402F
:10400800005001400700010080B485B000AF78601F
:104018007B6893F83D30DBB2012B01D0012354E0DB
:104028007B68022283F83D207B681B68DA687B681E
:104038001B6842F00102DA607B681B68254A9342DC
:1040480022D07B681B68B3F1804F1DD07B681B684A
:10405800214A934218D07B681B68204A934213D0A8
:104068007B681B681E4A93420ED07B681B681D4AFA
:10407800934209D07B681B681B4A934204D07B6833
:104088001B681A4A934215D17B681B689A68184BBB
:104098001340FB60FB68062B15D0FB68B3F5803F27
:1040A80011D07B681B681A687B681B6842F00102A4
:1040B8001A6008E07B681B681A687B681B6842F016
:1040C80001021A6000E000BF002318461437BD46FD
:1040D80080BC7047002C01400004004000080040EC
:1040E800000C0040003401400040014000500140F5
:1040F8000700010080B582B000AF78607B68002BB4
:1041080001D1012349E07B6893F83D30DBB2002BF5
:1041180006D17B68002283F83C207868FDF7FEFA18
:104128007B68022283F83D207B681A687B68043329
:104138001946104600F036FC7B68012283F84820B7
:104148007B68012283F83E207B68012283F83F20A8
:104158007B68012283F840207B68012283F8412094
:104168007B68012283F842207B68012283F8432080
:104178007B68012283F844207B68012283F845206C
:104188007B68012283F846207B68012283F8472058
:104198007B68012283F83D20002318460837BD4676
:1041A80080BD80B582B000AF786039607B68002B35
:1041B80001D1012341E07B6893F83D30DBB2002B4D
:1041C80006D17B68002283F83C20786800F039F833
:1041D8007B68022283F83D207B681A687B68043379
:1041E8001946104600F0DEFB7B681B681A687B687E
:1041F8001B6822F008021A607B681B6819687B68D4
:104208001B683A680A431A607B68012283F84820D1
:104218007B68012283F83E207B68012283F83F20D7
:104228007B68012283F844207B68012283F84520BB
:104238007B68012283F83D20002318460837BD46D5
:1042480080BD80B483B000AF786000BF0C37BD4636
:1042580080BC704780B584B000AF78607B681B680D
:10426800DB68FB607B681B681B69BB60BB6803F08D
:104278000203002B20D0FB6803F00203002B1BD0A5
:104288007B681B686FF002021A617B6801221A774B
:104298007B681B689B6903F00303002B03D07868D5
:1042A80000F064FB05E0786800F057FB786800F0E0
:1042B80066FB7B6800221A77BB6803F00403002BB7
:1042C80020D0FB6803F00403002B1BD07B681B681D
:1042D8006FF004021A617B6802221A777B681B68F8
:1042E8009B6903F44073002B03D0786800F03EFB11
:1042F80005E0786800F031FB786800F040FB7B68E7
:1043080000221A77BB6803F00803002B20D0FB6853
:1043180003F00803002B1BD07B681B686FF00802B2
:104328001A617B6804221A777B681B68DB6903F0D3
:104338000303002B03D0786800F018FB05E07868C9
:1043480000F00BFB786800F01AFB7B6800221A77F4
:10435800BB6803F01003002B20D0FB6803F01003A8
:10436800002B1BD07B681B686FF010021A617B68FA
:1043780008221A777B681B68DB6903F44073002BFB
:1043880003D0786800F0F2FA05E0786800F0E5FA02
:10439800786800F0F4FA7B6800221A77BB6803F0AB
:1043A8000103002B0CD0FB6803F00103002B07D09E
:1043B8007B681B686FF001021A61786800F0C4FA24
:1043C800BB6803F08003002B04D1BB6803F40053DF
:1043D800002B0CD0FB6803F08003002B07D07B6810
:1043E8001B686FF402521A61786801F0F2F8BB6832
:1043F80003F48073002B0CD0FB6803F08003002BC0
:1044080007D07B681B686FF480721A61786801F0C6
:10441800E9F8BB6803F04003002B0CD0FB6803F0FD
:104428004003002B07D07B681B686FF040021A61BD
:10443800786800F0ADFABB6803F02003002B0CD0BD
:10444800FB6803F02003002B07D07B681B686FF024
:1044580020021A61786801F0B3F8BB6803F480138E
:10446800002B0CD0FB6803F48013002B07D07B686B
:104478001B686FF480121A61786801F0BCF8BB6899
:1044880003F40013002B0CD0FB6803F40013002B7B
:1044980007D07B681B686FF400121A61786801F016
:1044A800B3F8BB6803F48003002B0CD0FB6803F45B
:1044B8008003002B07D07B681B686FF480021A61A9
:1044C800786801F0AAF8BB6803F40003002B0CD04D
:1044D800FB6803F40003002B07D07B681B686FF4AC
:1044E80000021A61786801F0A1F800BF1037BD46D4
:1044F80080BD000080B586B000AFF860B9607A6012
:104508000023FB75FB6893F83C30012B01D1022393
:10451800FFE0FB68012283F83C207B68142B00F243
:10452800F08001A252F823F0854500080B470008E7
:104538000B4700080B470008C54500080B47000853
:104548000B4700080B470008074600080B47000800
:104558000B4700080B470008474600080B470008B0
:104568000B4700080B470008894600080B4700085E
:104578000B4700080B470008C9460008FB681B6882
:10458800B968184600F0C0FAFB681B689A69FB68AE
:104598001B6842F008029A61FB681B689A69FB680D
:1045A8001B6822F004029A61FB681B689969BB6862
:1045B8001A69FB681B680A439A61A5E0FB681B68D7
:1045C800B968184600F03AFBFB681B689A69FB68F3
:1045D8001B6842F400629A61FB681B689A69FB6871
:1045E8001B6822F480629A61FB681B689969BB6842
:1045F8001B691A02FB681B680A439A6184E0FB681E
:104608001B68B968184600F0ABFBFB681B68DA69E1
:10461800FB681B6842F00802DA61FB681B68DA690C
:10462800FB681B6822F00402DA61FB681B68D96921
:10463800BB681A69FB681B680A43DA6164E0FB68B7
:104648001B68B968184600F01DFCFB681B68DA692E
:10465800FB681B6842F40062DA61FB681B68DA6970
:10466800FB681B6822F48062DA61FB681B68D96901
:10467800BB681B691A02FB681B680A43DA6143E0DE
:10468800FB681B68B968184600F08EFCFB681B685D
:104698001A6DFB681B6842F008021A65FB681B6804
:1046A8001A6DFB681B6822F004021A65FB681B6818
:1046B800196DBB681A69FB681B680A431A6523E011
:1046C800FB681B68B968184600F0D8FCFB681B68D3
:1046D8001A6DFB681B6842F400621A65FB681B6868
:1046E8001A6DFB681B6822F480621A65FB681B68F8
:1046F800196DBB681B691A02FB681B680A431A65B7
:1047080002E00123FB7500BFFB68002283F83C2010
:10471800FB7D18461837BD4680BD00BF80B584B004
:1047280000AF786039600023FB737B6893F83C30F6
:10473800012B01D10223F6E07B68012283F83C209B
:104748007B68022283F83D207B681B689B68BB60FE
:10475800BB6823F4441323F07703BB60BB6823F4DE
:104768007F43BB607B681B68BA689A603B681B68BC
:104778006F4A934200F0C1806D4A934200F2C680AE
:104788006C4A934200F0B9806A4A934200F2BE80B4
:10479800694A934200F0B180674A934200F2B680BA
:1047A800664A934200F0A980644A934200F2AE80C0
:1047B800634A934200F0A180614A934200F2A680C6
:1047C800604A934200F099805E4A934200F29E80CC
:1047D800B3F1101F00F09180B3F1101F00F2968022
:1047E800B3F5801F00F08980B3F5801F00F28E803A
:1047F800B3F5005F3ED0B3F5005F00F28780B3F5F4
:10480800805F00F08680B3F5805F7FD8702B1AD068
:10481800702B7BD8602B50D0602B77D8502B3CD096
:10482800502B73D8402B58D0402B6FD8302B64D0E6
:10483800302B6BD8202B60D0202B67D8002B5CD076
:10484800102B5AD062E07B6818683B6899683B680F
:104858005A683B68DB6800F0F4FC7B681B689B685F
:10486800BB60BB6843F07703BB607B681B68BA68B2
:104878009A604FE07B6818683B6899683B685A689B
:104888003B68DB6800F0DDFC7B681B689A687B6826
:104898001B6842F480429A603CE07B6818683B6879
:1048A80059683B68DB681A4600F052FC7B681B6855
:1048B8005021184600F0A9FC2CE07B6818683B687A
:1048C80059683B68DB681A4600F070FC7B681B6817
:1048D8006021184600F099FC1CE07B6818683B686A
:1048E80059683B68DB681A4600F032FC7B681B6835
:1048F8004021184600F089FC0CE07B681A683B6888
:104908001B681946104600F080FC03E00123FB7386
:1049180000E000BF7B68012283F83D207B6800220D
:1049280083F83C20FB7B18461037BD4680BD00BF8E
:1049380070001000600010005000100040001000CF
:10494800300010002000100080B483B000AF786001
:1049580000BF0C37BD4680BC704780B483B000AF41
:10496800786000BF0C37BD4680BC704780B483B008
:1049780000AF786000BF0C37BD4680BC704780B47C
:1049880083B000AF786000BF0C37BD4680BC70476D
:1049980080B483B000AF786000BF0C37BD4680BCE0
:1049A8007047000080B485B000AF786039607B68DC
:1049B8001B68FB607B684B4A934217D07B68B3F156
:1049C800804F13D07B68484A93420FD07B68474A90
:1049D80093420BD07B68464A934207D07B68454A8E
:1049E800934203D07B68444A934208D1FB6823F082
:1049F8007003FB603B685B68FA681343FB607B6885
:104A0800384A934223D07B68B3F1804F1FD07B682C
:104A1800354A93421BD07B68344A934217D07B684F
:104A2800334A934213D07B68324A93420FD07B6853
:104A3800324A93420BD07B68314A934207D07B6855
:104A4800304A934203D07B682B4A934208D1FB68D3
:104A580023F44073FB603B68DB68FA681343FB6030
:104A6800FB6823F080023B685B691343FB607B684B
:104A7800FA681A603B689A687B68DA623B681A6869
:104A88007B689A627B68174A934213D07B68194AFD
:104A980093420FD07B68194A93420BD07B68184A1F
:104AA800934207D07B68174A934203D07B68124A27
:104AB800934203D13B681A697B681A637B680122B9
:104AC8005A617B681B6903F00103012B05D17B68E0
:104AD8001B6923F001027B681A6100BF1437BD46C9
:104AE80080BC7047002C01400004004000080040D2
:104AF800000C0040003401400050014000400140DB
:104B0800004401400048014080B487B000AF78609D
:104B180039607B681B6A7B617B681B6A23F0010232
:104B28007B681A627B685B683B617B689B69FB609A
:104B3800FB6823F4803323F07003FB60FB6823F0E9
:104B48000303FB603B681B68FA681343FB607B69DF
:104B580023F002037B613B689B687A6913437B619E
:104B68007B68304A934213D07B682F4A93420FD018
:104B78007B682E4A93420BD07B682D4A934207D01C
:104B88007B682C4A934203D07B682B4A93420CD112
:104B98007B6923F008037B613B68DB687A69134310
:104BA8007B617B6923F004037B617B681D4A934228
:104BB80013D07B681C4A93420FD07B681B4A9342F0
:104BC8000BD07B681A4A934207D07B68194A9342F4
:104BD80003D07B68184A934211D13B6923F4807350
:104BE8003B613B6923F400733B613B685B693A694D
:104BF80013433B613B689B693A6913433B617B689C
:104C08003A695A607B68FA689A613B685A687B68B7
:104C18005A637B687A691A6200BF1C37BD4680BC3C
:104C2800704700BF002C01400034014000400140A3
:104C380000440140004801400050014080B487B062
:104C480000AF786039607B681B6A7B617B681B6A90
:104C580023F010027B681A627B685B683B617B68A3
:104C68009B69FB60FB6823F0807323F4E043FB60DF
:104C7800FB6823F44073FB603B681B681B02FA68FF
:104C88001343FB607B6923F020037B613B689B68CF
:104C98001B017A6913437B617B682B4A934207D0D7
:104CA8007B682A4A934203D07B68294A93420DD1F4
:104CB8007B6923F080037B613B68DB681B017A69B1
:104CC80013437B617B6923F040037B617B681E4A49
:104CD800934213D07B681D4A93420FD07B681D4ACC
:104CE80093420BD07B681C4A934207D07B681B4ACF
:104CF800934203D07B68164A934213D13B6923F44D
:104D080080633B613B6923F400633B613B685B69FB
:104D18009B003A6913433B613B689B699B003A6976
:104D280013433B617B683A695A607B68FA689A6109
:104D38003B685A687B689A637B687A691A6200BF25
:104D48001C37BD4680BC7047002C01400034014030
:104D5800005001400040014000440140004801402B
:104D680080B487B000AF786039607B681B6A7B616C
:104D78007B681B6A23F480727B681A627B685B68B5
:104D88003B617B68DB69FB60FB6823F4803323F0BD
:104D98007003FB60FB6823F00303FB603B681B6840
:104DA800FA681343FB607B6923F400737B613B68FB
:104DB8009B681B027A6913437B617B682B4A934289
:104DC80007D07B682A4A934203D07B68294A9342DA
:104DD8000DD17B6923F400637B613B68DB681B02B0
:104DE8007A6913437B617B6923F480637B617B6809
:104DF8001E4A934213D07B681D4A93420FD07B68AA
:104E08001D4A93420BD07B681C4A934207D07B68AB
:104E18001B4A934203D07B68164A934213D13B69DD
:104E280023F480533B613B6923F400533B613B68A7
:104E38005B691B013A6913433B613B689B691B0132
:104E48003A6913433B617B683A695A607B68FA6840
:104E5800DA613B685A687B68DA637B687A691A6248
:104E680000BF1C37BD4680BC704700BF002C014006
:104E7800003401400050014000400140004401401E
:104E88000048014080B487B000AF786039607B6823
:104E98001B6A7B617B681B6A23F480527B681A62F9
:104EA8007B685B683B617B68DB69FB60FB6823F0C0
:104EB800807323F4E043FB60FB6823F44073FB60DA
:104EC8003B681B681B02FA681343FB607B6923F489
:104ED80000537B613B689B681B037A6913437B61C2
:104EE8007B682B4A934207D07B682A4A934203D0B7
:104EF8007B68294A93420DD17B6923F400437B6187
:104F08003B68DB681B037A6913437B617B6923F485
:104F180080437B617B681E4A934213D07B681D4A9D
:104F280093420FD07B681D4A93420BD07B681C4A82
:104F3800934207D07B681B4A934203D07B68164A8A
:104F4800934213D13B6923F480433B613B6923F4CB
:104F580000433B613B685B699B013A6913433B61D2
:104F68003B689B699B013A6913433B617B683A69DB
:104F78005A607B68FA68DA613B685A687B681A6429
:104F88007B687A691A6200BF1C37BD4680BC7047CF
:104F9800002C014000340140005001400040014015
:104FA800004401400048014080B487B000AF7860F9
:104FB80039607B681B6A3B617B681B6A23F480321B
:104FC8007B681A627B685B687B617B681B6DFB6032
:104FD800FB6823F4803323F07003FB603B681B6895
:104FE800FA681343FB603B6923F400333B613B6879
:104FF8009B681B043A6913433B617B68194A9342D7
:1050080013D07B68184A93420FD07B68174A9342A3
:105018000BD07B68164A934207D07B68154A9342A7
:1050280003D07B68144A934209D17B6923F4803307
:105038007B613B685B691B027A6913437B617B6810
:105048007A695A607B68FA681A653B685A687B68AF
:105058009A647B683A691A6200BF1C37BD4680BCF7
:10506800704700BF002C014000340140004001405F
:1050780000440140004801400050014080B487B01E
:1050880000AF786039607B681B6A3B617B681B6A8C
:1050980023F480127B681A627B685B687B617B689B
:1050A8001B6DFB60FB6823F0807323F4E043FB6017
:1050B8003B681B681B02FA681343FB603B6923F4D7
:1050C80000133B613B689B681B053A6913433B61CE
:1050D8007B68194A934213D07B68184A93420FD0D1
:1050E8007B68174A93420BD07B68164A934207D0D5
:1050F8007B68154A934203D07B68144A934209D1CE
:105108007B6923F480237B613B685B699B027A6936
:1051180013437B617B687A695A607B68FA681A6511
:105128003B685A687B68DA647B683A691A6200BF30
:105138001C37BD4680BC7047002C0140003401403C
:105148000040014000440140004801400050014037
:1051580080B487B000AFF860B9607A60FB681B6AFA
:105168007B61FB681B6A23F00102FB681A62FB681B
:105178009B693B613B6923F0F0033B617B681B0142
:105188003A6913433B617B6923F00A037B617A69BF
:10519800BB6813437B61FB683A699A61FB687A696B
:1051A8001A6200BF1C37BD4680BC704780B487B008
:1051B80000AFF860B9607A60FB681B6A7B61FB68C6
:1051C8001B6A23F01002FB681A62FB689B693B614B
:1051D8003B6923F470433B617B681B033A691343C3
:1051E8003B617B6923F0A0037B61BB681B017A6983
:1051F80013437B61FB683A699A61FB687A691A62B2
:1052080000BF1C37BD4680BC704780B485B000AF76
:10521800786039607B689B68FB60FB6823F4401307
:1052280023F07003FB603A68FB68134343F00703FD
:10523800FB607B68FA689A6000BF1437BD4680BC83
:10524800704780B487B000AFF860B9607A603B609F
:10525800FB689B687B617B6923F47F437B613B68C8
:105268001A027B681A43BB6813437A6913437B614C
:10527800FB687A699A6000BF1C37BD4680BC7047DE
:1052880080B487B000AFF860B9607A60BB6803F09B
:105298001F03012202FA03F37B61FB681A6A7B6928
:1052A800DB431A40FB681A62FB681A6ABB6803F0A2
:1052B8001F03796801FA03F31A43FB681A6200BFF7
:1052C8001C37BD4680BC704780B584B000AF78609D
:1052D80039603B68002B01D1042300E00023FB6008
:1052E8007B6893F83E30FB727B6893F83F30BB7263
:1052F8007B6893F844307B727B6893F845303B7247
:10530800FB7A012B08D1BB7A012B05D17B7A012BC3
:1053180002D13B7A012B01D0012326E07B680222CF
:1053280083F83E207B68022283F83F207B680222B4
:1053380083F844207B68022283F845207B681B6839
:1053480004223968184600F07AF97B681B68012244
:10535800F9681846FFF794FF7B681B685A6C7B68EE
:105368001B6842F400425A64002318461037BD46B1
:1053780080BD000080B485B000AF786039607B687C
:1053880093F83C30012B01D1022374E07B680122A1
:1053980083F83C207B68022283F83D207B681B68E9
:1053A8005B68FB607B681B689B68BB607B681B68ED
:1053B800334A934209D07B681B68324A934204D02F
:1053C8007B681B68304A934208D1FB6823F470035A
:1053D800FB603B685B68FA681343FB60FB6823F07B
:1053E800007323F07003FB603B681B68FA68134383
:1053F800FB607B681B68FA685A607B681B68204AF8
:10540800934222D07B681B68B3F1804F1DD07B6824
:105418001B681E4A934218D07B681B681C4A93423B
:1054280013D07B681B681B4A93420ED07B681B68AD
:10543800144A934209D07B681B68174A934204D0E8
:105448007B681B68104A93420CD1BB6823F0800329
:10545800BB603B689B68BA681343BB607B681B688A
:10546800BA689A607B68012283F83D207B68002235
:1054780083F83C20002318461437BD4680BC70478B
:10548800002C01400034014000500140000400405D
:1054980000080040000C00400040014080B485B086
:1054A80000AF786039600023FB607B6893F83C307C
:1054B800012B01D1022378E07B68012283F83C208C
:1054C800FB6823F0FF023B68DB681343FB60FB6863
:1054D80023F440723B689B681343FB60FB6823F42A
:1054E80080623B685B681343FB60FB6823F40062DF
:1054F8003B681B681343FB60FB6823F480523B68DE
:105508001B691343FB60FB6823F400523B685B692B
:105518001343FB60FB6823F480423B681B6B134317
:10552800FB60FB6823F470223B689B691B041343F0
:10553800FB60FB6823F080523B68DB691343FB6028
:105548007B681B681B4A934209D07B681B681A4A10
:10555800934204D07B681B68184A93421CD1FB68AD
:1055680023F470023B689B6A1B051343FB60FB68CE
:1055780023F080723B681B6A1343FB60FB6823F0CF
:1055880000723B685B6A1343FB60FB6823F00052C0
:105598003B68DB6A1343FB607B681B68FA685A64E4
:1055A8007B68002283F83C20002318461437BD4648
:1055B80080BC7047002C014000340140005001407D
:1055C80080B483B000AF786000BF0C37BD4680BCA4
:1055D800704780B483B000AF786000BF0C37BD4619
:1055E80080BC704780B483B000AF786000BF0C37D0
:1055F800BD4680BC704780B483B000AF786000BF00
:105608000C37BD4680BC704780B483B000AF78606B
:1056180000BF0C37BD4680BC704780B483B000AF74
:10562800786000BF0C37BD4680BC704780B483B03B
:1056380000AF786000BF0C37BD4680BC704780B4AF
:1056480087B000AFF860B9607A60BB6803F00F03F9
:10565800042202FA03F37B61FB681A6A7B69DB4365
:105668001A40FB681A62FB681A6ABB6803F00F03EA
:10567800796801FA03F31A43FB681A6200BF1C3702
:10568800BD4680BC704780B582B000AF78607B684B
:10569800002B01D1012342E07B68D3F88830002B2E
:1056A80006D17B68002283F884207868FCF78CF8A0
:1056B8007B682422C3F888207B681B681A687B688B
:1056C8001B6822F001021A607B689B6A002B02D0DB
:1056D800786800F0B3FB786800F0B4F80346012B53
:1056E80001D101231BE07B681B685A687B681B6833
:1056F80022F490425A607B681B689A687B681B6832
:1057080022F02A029A607B681B681A687B681B680B
:1057180042F001021A60786800F031FC034618462E
:105728000837BD4680BD80B58AB002AFF860B96061
:105738003B601346FB80FB68D3F88830202B7BD175
:10574800BB68002B02D0FB88002B01D1012374E039
:10575800FB680022C3F89020FB682122C3F8882048
:10576800FCF7C4F97861FB68FA88A3F85420FB6851
:10577800FA88A3F85620FB689B68B3F5805F08D1C8
:10578800FB681B69002B04D10023FB61BB68BB616C
:1057980003E0BB68FB610023BB6130E03B6800931A
:1057A8007B6900228021F86800F093FC0346002BF7
:1057B80005D0FB682022C3F8882003233DE0FB695D
:1057C800002B0BD1BB691B881A46FB681B68C2F308
:1057D80008029A62BB690233BB6107E0FB691A7869
:1057E800FB681B689A62FB690133FB61FB68B3F8CD
:1057F80056309BB2013B9AB2FB68A3F85620FB686F
:10580800B3F856309BB2002BC8D13B6800937B6934
:1058180000224021F86800F05CFC0346002B05D00C
:10582800FB682022C3F88820032306E0FB682022B7
:10583800C3F88820002300E0022318462037BD461D
:1058480080BD00002DE9B04F8CB000AF7861002317
:1058580087F82A307B699A687B691B691A437B69D8
:105868005B691A437B69DB691343FB627B691B68CD
:105878001A68AA4B13407A691268F96A0B431360D5
:105888007B691B685B6823F440517B69DA687B6934
:105898001B680A435A607B699B69FB627B691B68CA
:1058A8009F4A934204D07B691B6AFA6A1343FB62DE
:1058B8007B691B689B6823F06E4323F430637A6925
:1058C8001268F96A0B4393607B691B68DB6A23F0F3
:1058D8000F017B695A6A7B691B680A43DA627B6934
:1058E8001B68904A934225D18F4BD3F8883003F038
:1058F8000303032B1AD801A252F823F01559000804
:10590800255900081D5900082D590008012387F85A
:105918002B3016E1022387F82B3012E1042387F895
:105928002B300EE1082387F82B300AE1102387F883
:105938002B3006E17B691B687C4A934238D17A4B4D
:10594800D3F8883003F00C030C2B2DD801A252F8A1
:1059580023F000BF91590008B1590008B159000857
:10596800B1590008A1590008B1590008B1590008F7
:10597800B159000899590008B1590008B1590008EF
:10598800B1590008A9590008002387F82B30D8E03E
:10599800022387F82B30D4E0042387F82B30D0E09B
:1059A800082387F82B30CCE0102387F82B30C8E089
:1059B8007B691B685E4A934225D15B4BD3F88830DC
:1059C80003F03003302B16D0302B18D8202B0AD0F8
:1059D800202B14D8002B02D0102B08D00FE0002366
:1059E80087F82B30ADE0022387F82B30A9E0042399
:1059F80087F82B30A5E0082387F82B30A1E0102387
:105A080087F82B309DE07B691B684A4A934225D171
:105A1800454BD3F8883003F0C003C02B16D0C02BF9
:105A280018D8802B0AD0802B14D8002B02D0402BFA
:105A380008D00FE0002387F82B3082E0022387F894
:105A48002B307EE0042387F82B307AE0082387F890
:105A58002B3076E0102387F82B3072E07B691B68C7
:105A6800354A93422AD1304BD3F8883003F4407337
:105A7800B3F5407F1AD0B3F5407F1BD8B3F5007F4C
:105A88000CD0B3F5007F15D8002B03D0B3F5807F79
:105A980008D00FE0002387F82B3052E0022387F864
:105AA8002B304EE0042387F82B304AE0082387F890
:105AB8002B3046E0102387F82B3042E07B691B68C7
:105AC800174A93423AD1184BD3F8883003F440630D
